{
  "_format": "hh-sol-artifact-1",
  "contractName": "DefiSwapPair",
  "sourceName": "contracts/amm/DefiSwapPair.sol",
  "abi": [
    {
      "inputs": [
        {
          "internalType": "address",
          "name": "tokenA",
          "type": "address"
        },
        {
          "internalType": "address",
          "name": "tokenB",
          "type": "address"
        },
        {
          "internalType": "address",
          "name": "initialFeeRecipient",
          "type": "address"
        },
        {
          "internalType": "address",
          "name": "initialOwner",
          "type": "address"
        }
      ],
      "stateMutability": "nonpayable",
      "type": "constructor"
    },
    {
      "inputs": [
        {
          "internalType": "address",
          "name": "spender",
          "type": "address"
        },
        {
          "internalType": "uint256",
          "name": "allowance",
          "type": "uint256"
        },
        {
          "internalType": "uint256",
          "name": "needed",
          "type": "uint256"
        }
      ],
      "name": "ERC20InsufficientAllowance",
      "type": "error"
    },
    {
      "inputs": [
        {
          "internalType": "address",
          "name": "sender",
          "type": "address"
        },
        {
          "internalType": "uint256",
          "name": "balance",
          "type": "uint256"
        },
        {
          "internalType": "uint256",
          "name": "needed",
          "type": "uint256"
        }
      ],
      "name": "ERC20InsufficientBalance",
      "type": "error"
    },
    {
      "inputs": [
        {
          "internalType": "address",
          "name": "approver",
          "type": "address"
        }
      ],
      "name": "ERC20InvalidApprover",
      "type": "error"
    },
    {
      "inputs": [
        {
          "internalType": "address",
          "name": "receiver",
          "type": "address"
        }
      ],
      "name": "ERC20InvalidReceiver",
      "type": "error"
    },
    {
      "inputs": [
        {
          "internalType": "address",
          "name": "sender",
          "type": "address"
        }
      ],
      "name": "ERC20InvalidSender",
      "type": "error"
    },
    {
      "inputs": [
        {
          "internalType": "address",
          "name": "spender",
          "type": "address"
        }
      ],
      "name": "ERC20InvalidSpender",
      "type": "error"
    },
    {
      "inputs": [],
      "name": "IdenticalTokens",
      "type": "error"
    },
    {
      "inputs": [],
      "name": "InsufficientInputAmount",
      "type": "error"
    },
    {
      "inputs": [],
      "name": "InsufficientLiquidityBurned",
      "type": "error"
    },
    {
      "inputs": [],
      "name": "InsufficientLiquidityMinted",
      "type": "error"
    },
    {
      "inputs": [],
      "name": "InsufficientOutputAmount",
      "type": "error"
    },
    {
      "inputs": [],
      "name": "InvalidToken",
      "type": "error"
    },
    {
      "inputs": [],
      "name": "Overflow",
      "type": "error"
    },
    {
      "inputs": [
        {
          "internalType": "address",
          "name": "owner",
          "type": "address"
        }
      ],
      "name": "OwnableInvalidOwner",
      "type": "error"
    },
    {
      "inputs": [
        {
          "internalType": "address",
          "name": "account",
          "type": "address"
        }
      ],
      "name": "OwnableUnauthorizedAccount",
      "type": "error"
    },
    {
      "inputs": [],
      "name": "ReentrancyGuardReentrantCall",
      "type": "error"
    },
    {
      "inputs": [
        {
          "internalType": "address",
          "name": "token",
          "type": "address"
        }
      ],
      "name": "SafeERC20FailedOperation",
      "type": "error"
    },
    {
      "inputs": [],
      "name": "ZeroAddress",
      "type": "error"
    },
    {
      "inputs": [],
      "name": "ZeroAmount",
      "type": "error"
    },
    {
      "anonymous": false,
      "inputs": [
        {
          "indexed": true,
          "internalType": "address",
          "name": "owner",
          "type": "address"
        },
        {
          "indexed": true,
          "internalType": "address",
          "name": "spender",
          "type": "address"
        },
        {
          "indexed": false,
          "internalType": "uint256",
          "name": "value",
          "type": "uint256"
        }
      ],
      "name": "Approval",
      "type": "event"
    },
    {
      "anonymous": false,
      "inputs": [
        {
          "indexed": true,
          "internalType": "address",
          "name": "oldRecipient",
          "type": "address"
        },
        {
          "indexed": true,
          "internalType": "address",
          "name": "newRecipient",
          "type": "address"
        }
      ],
      "name": "FeeRecipientUpdated",
      "type": "event"
    },
    {
      "anonymous": false,
      "inputs": [
        {
          "indexed": true,
          "internalType": "address",
          "name": "provider",
          "type": "address"
        },
        {
          "indexed": true,
          "internalType": "address",
          "name": "to",
          "type": "address"
        },
        {
          "indexed": false,
          "internalType": "uint256",
          "name": "amount0",
          "type": "uint256"
        },
        {
          "indexed": false,
          "internalType": "uint256",
          "name": "amount1",
          "type": "uint256"
        },
        {
          "indexed": false,
          "internalType": "uint256",
          "name": "shares",
          "type": "uint256"
        }
      ],
      "name": "LiquidityAdded",
      "type": "event"
    },
    {
      "anonymous": false,
      "inputs": [
        {
          "indexed": true,
          "internalType": "address",
          "name": "provider",
          "type": "address"
        },
        {
          "indexed": true,
          "internalType": "address",
          "name": "to",
          "type": "address"
        },
        {
          "indexed": false,
          "internalType": "uint256",
          "name": "amount0",
          "type": "uint256"
        },
        {
          "indexed": false,
          "internalType": "uint256",
          "name": "amount1",
          "type": "uint256"
        },
        {
          "indexed": false,
          "internalType": "uint256",
          "name": "shares",
          "type": "uint256"
        }
      ],
      "name": "LiquidityRemoved",
      "type": "event"
    },
    {
      "anonymous": false,
      "inputs": [
        {
          "indexed": true,
          "internalType": "address",
          "name": "previousOwner",
          "type": "address"
        },
        {
          "indexed": true,
          "internalType": "address",
          "name": "newOwner",
          "type": "address"
        }
      ],
      "name": "OwnershipTransferred",
      "type": "event"
    },
    {
      "anonymous": false,
      "inputs": [
        {
          "indexed": false,
          "internalType": "uint112",
          "name": "reserve0",
          "type": "uint112"
        },
        {
          "indexed": false,
          "internalType": "uint112",
          "name": "reserve1",
          "type": "uint112"
        }
      ],
      "name": "ReservesSynced",
      "type": "event"
    },
    {
      "anonymous": false,
      "inputs": [
        {
          "indexed": true,
          "internalType": "address",
          "name": "sender",
          "type": "address"
        },
        {
          "indexed": true,
          "internalType": "address",
          "name": "tokenIn",
          "type": "address"
        },
        {
          "indexed": true,
          "internalType": "address",
          "name": "to",
          "type": "address"
        },
        {
          "indexed": false,
          "internalType": "uint256",
          "name": "amountIn",
          "type": "uint256"
        },
        {
          "indexed": false,
          "internalType": "uint256",
          "name": "amountOut",
          "type": "uint256"
        },
        {
          "indexed": false,
          "internalType": "uint256",
          "name": "feeAmount",
          "type": "uint256"
        }
      ],
      "name": "Swap",
      "type": "event"
    },
    {
      "anonymous": false,
      "inputs": [
        {
          "indexed": true,
          "internalType": "address",
          "name": "from",
          "type": "address"
        },
        {
          "indexed": true,
          "internalType": "address",
          "name": "to",
          "type": "address"
        },
        {
          "indexed": false,
          "internalType": "uint256",
          "name": "value",
          "type": "uint256"
        }
      ],
      "name": "Transfer",
      "type": "event"
    },
    {
      "inputs": [],
      "name": "BPS",
      "outputs": [
        {
          "internalType": "uint256",
          "name": "",
          "type": "uint256"
        }
      ],
      "stateMutability": "view",
      "type": "function"
    },
    {
      "inputs": [],
      "name": "FEE_BPS",
      "outputs": [
        {
          "internalType": "uint256",
          "name": "",
          "type": "uint256"
        }
      ],
      "stateMutability": "view",
      "type": "function"
    },
    {
      "inputs": [],
      "name": "MINIMUM_LIQUIDITY",
      "outputs": [
        {
          "internalType": "uint256",
          "name": "",
          "type": "uint256"
        }
      ],
      "stateMutability": "view",
      "type": "function"
    },
    {
      "inputs": [
        {
          "internalType": "uint256",
          "name": "amount0Desired",
          "type": "uint256"
        },
        {
          "internalType": "uint256",
          "name": "amount1Desired",
          "type": "uint256"
        },
        {
          "internalType": "uint256",
          "name": "minShares",
          "type": "uint256"
        },
        {
          "internalType": "address",
          "name": "to",
          "type": "address"
        }
      ],
      "name": "addLiquidity",
      "outputs": [
        {
          "internalType": "uint256",
          "name": "shares",
          "type": "uint256"
        }
      ],
      "stateMutability": "nonpayable",
      "type": "function"
    },
    {
      "inputs": [
        {
          "internalType": "address",
          "name": "owner",
          "type": "address"
        },
        {
          "internalType": "address",
          "name": "spender",
          "type": "address"
        }
      ],
      "name": "allowance",
      "outputs": [
        {
          "internalType": "uint256",
          "name": "",
          "type": "uint256"
        }
      ],
      "stateMutability": "view",
      "type": "function"
    },
    {
      "inputs": [
        {
          "internalType": "address",
          "name": "spender",
          "type": "address"
        },
        {
          "internalType": "uint256",
          "name": "value",
          "type": "uint256"
        }
      ],
      "name": "approve",
      "outputs": [
        {
          "internalType": "bool",
          "name": "",
          "type": "bool"
        }
      ],
      "stateMutability": "nonpayable",
      "type": "function"
    },
    {
      "inputs": [
        {
          "internalType": "address",
          "name": "account",
          "type": "address"
        }
      ],
      "name": "balanceOf",
      "outputs": [
        {
          "internalType": "uint256",
          "name": "",
          "type": "uint256"
        }
      ],
      "stateMutability": "view",
      "type": "function"
    },
    {
      "inputs": [],
      "name": "decimals",
      "outputs": [
        {
          "internalType": "uint8",
          "name": "",
          "type": "uint8"
        }
      ],
      "stateMutability": "view",
      "type": "function"
    },
    {
      "inputs": [],
      "name": "feeRecipient",
      "outputs": [
        {
          "internalType": "address",
          "name": "",
          "type": "address"
        }
      ],
      "stateMutability": "view",
      "type": "function"
    },
    {
      "inputs": [
        {
          "internalType": "uint256",
          "name": "amountIn",
          "type": "uint256"
        },
        {
          "internalType": "address",
          "name": "tokenIn",
          "type": "address"
        }
      ],
      "name": "getAmountOut",
      "outputs": [
        {
          "internalType": "uint256",
          "name": "",
          "type": "uint256"
        }
      ],
      "stateMutability": "view",
      "type": "function"
    },
    {
      "inputs": [],
      "name": "getReserves",
      "outputs": [
        {
          "internalType": "uint112",
          "name": "reserve0",
          "type": "uint112"
        },
        {
          "internalType": "uint112",
          "name": "reserve1",
          "type": "uint112"
        }
      ],
      "stateMutability": "view",
      "type": "function"
    },
    {
      "inputs": [],
      "name": "name",
      "outputs": [
        {
          "internalType": "string",
          "name": "",
          "type": "string"
        }
      ],
      "stateMutability": "view",
      "type": "function"
    },
    {
      "inputs": [],
      "name": "owner",
      "outputs": [
        {
          "internalType": "address",
          "name": "",
          "type": "address"
        }
      ],
      "stateMutability": "view",
      "type": "function"
    },
    {
      "inputs": [
        {
          "internalType": "uint256",
          "name": "shares",
          "type": "uint256"
        },
        {
          "internalType": "uint256",
          "name": "minAmount0",
          "type": "uint256"
        },
        {
          "internalType": "uint256",
          "name": "minAmount1",
          "type": "uint256"
        },
        {
          "internalType": "address",
          "name": "to",
          "type": "address"
        }
      ],
      "name": "removeLiquidity",
      "outputs": [
        {
          "internalType": "uint256",
          "name": "amount0",
          "type": "uint256"
        },
        {
          "internalType": "uint256",
          "name": "amount1",
          "type": "uint256"
        }
      ],
      "stateMutability": "nonpayable",
      "type": "function"
    },
    {
      "inputs": [],
      "name": "renounceOwnership",
      "outputs": [],
      "stateMutability": "nonpayable",
      "type": "function"
    },
    {
      "inputs": [
        {
          "internalType": "address",
          "name": "newFeeRecipient",
          "type": "address"
        }
      ],
      "name": "setFeeRecipient",
      "outputs": [],
      "stateMutability": "nonpayable",
      "type": "function"
    },
    {
      "inputs": [
        {
          "internalType": "uint256",
          "name": "amountIn",
          "type": "uint256"
        },
        {
          "internalType": "uint256",
          "name": "minAmountOut",
          "type": "uint256"
        },
        {
          "internalType": "address",
          "name": "tokenIn",
          "type": "address"
        },
        {
          "internalType": "address",
          "name": "to",
          "type": "address"
        }
      ],
      "name": "swapExactTokensForTokens",
      "outputs": [
        {
          "internalType": "uint256",
          "name": "amountOut",
          "type": "uint256"
        }
      ],
      "stateMutability": "nonpayable",
      "type": "function"
    },
    {
      "inputs": [],
      "name": "symbol",
      "outputs": [
        {
          "internalType": "string",
          "name": "",
          "type": "string"
        }
      ],
      "stateMutability": "view",
      "type": "function"
    },
    {
      "inputs": [],
      "name": "sync",
      "outputs": [],
      "stateMutability": "nonpayable",
      "type": "function"
    },
    {
      "inputs": [],
      "name": "token0",
      "outputs": [
        {
          "internalType": "address",
          "name": "",
          "type": "address"
        }
      ],
      "stateMutability": "view",
      "type": "function"
    },
    {
      "inputs": [],
      "name": "token1",
      "outputs": [
        {
          "internalType": "address",
          "name": "",
          "type": "address"
        }
      ],
      "stateMutability": "view",
      "type": "function"
    },
    {
      "inputs": [],
      "name": "totalSupply",
      "outputs": [
        {
          "internalType": "uint256",
          "name": "",
          "type": "uint256"
        }
      ],
      "stateMutability": "view",
      "type": "function"
    },
    {
      "inputs": [
        {
          "internalType": "address",
          "name": "to",
          "type": "address"
        },
        {
          "internalType": "uint256",
          "name": "value",
          "type": "uint256"
        }
      ],
      "name": "transfer",
      "outputs": [
        {
          "internalType": "bool",
          "name": "",
          "type": "bool"
        }
      ],
      "stateMutability": "nonpayable",
      "type": "function"
    },
    {
      "inputs": [
        {
          "internalType": "address",
          "name": "from",
          "type": "address"
        },
        {
          "internalType": "address",
          "name": "to",
          "type": "address"
        },
        {
          "internalType": "uint256",
          "name": "value",
          "type": "uint256"
        }
      ],
      "name": "transferFrom",
      "outputs": [
        {
          "internalType": "bool",
          "name": "",
          "type": "bool"
        }
      ],
      "stateMutability": "nonpayable",
      "type": "function"
    },
    {
      "inputs": [
        {
          "internalType": "address",
          "name": "newOwner",
          "type": "address"
        }
      ],
      "name": "transferOwnership",
      "outputs": [],
      "stateMutability": "nonpayable",
      "type": "function"
    }
  ],
  "bytecode": "0x604060c0815234620004e45762001d1760808138039182620000218162000508565b938492833981010312620004e4576200003a816200052e565b906020906200004b8282016200052e565b906200006760606200005f8784016200052e565b92016200052e565b9162000072620004e8565b94600f86526e0446546692053747564656e74204c5608c1b8587015262000098620004e8565b600580825264044532d4c560dc1b878301528751909790916001600160401b0391828411620003df576003918254946001958681811c91168015620004d9575b8c821014620004c5578c938c8392601f968782116200046e575b5050508c90858311600114620003ff575f92620003f3575b50505f1982861b1c191690861b1783555b8051938411620003df576004998a548681811c91168015620003d4575b82821014620003c15790818487969594931162000367575b5080928511600114620002fd57505f93620002f1575b505082841b925f19911b1c19161786555b7f9b779b17422d0df92223018b32b4d1fa46e071723d6817e2486d003becc55f00556001600160a01b03948486168015620002db5787546001600160a01b031980821683179099558951919088167f8be0079c531659141344cd1fd0a4f28419497f9722a3daafe3b4186f6b6457e05f80a38684169187841691838314620002cf575081158015620002c6575b8015620002be575b620002b057501015620002aa57905b60a052608052808316620002a257505b16906006541617600655516117d390816200054482396080518181816103b0015281816105fb0152818161097b01528181610dec0152818161114001526114ab015260a0518181816103d7015281816105420152818161062601528181610a6d01528181610b6a0152818161123d01526114f20152f35b90506200022b565b6200021b565b895163d92e233d60e01b8152fd5b505f6200020c565b50821562000204565b635c6d7b7360e01b8152fd5b8851631e4fbdf760e01b81525f81840152602490fd5b015191505f8062000166565b929190869550601f1985168c5f52845f20945f905b8282106200034d575050851162000333575b50505050811b01865562000177565b01519060f8845f19921b161c191690555f80808062000324565b848401518755899890960195938401939081019062000312565b9091929394508b5f52815f208d85808901821c830193858a10620003b7575b918998978b9397969594929701901c01915b828110620003a857505062000150565b5f815588975089910162000398565b9350829362000386565b60228c634e487b7160e01b5f525260245ffd5b90607f169062000138565b634e487b7160e01b5f52604160045260245ffd5b015190505f806200010a565b889350908d91601f198416885f52835f20935f905b8282106200044c575050841162000434575b505050811b0183556200011b565b01515f1983881b60f8161c191690555f808062000426565b91929395968291958786015181550195019301908f918b969594939262000414565b9091929350875f5286835f2092818701831c8401948710620004bb575b9186959493918c9301901c01915b828110620004ac57508f8f9250620000f2565b5f81558594508a910162000499565b935082936200048b565b634e487b7160e01b5f52602260045260245ffd5b90607f1690620000d8565b5f80fd5b60408051919082016001600160401b03811183821017620003df57604052565b6040519190601f01601f191682016001600160401b03811183821017620003df57604052565b51906001600160a01b0382168203620004e45756fe60806040818152600480361015610014575f80fd5b5f3560e01c92836306fdde0314610ef9575082630902f1ac14610ec3578263095ea7b314610e1b5782630dfe168114610dd857826318160ddd14610dba57826323b872dd14610cca578263249d39e914610cae578263313ce56714610c935782634690484014610c6b57826370a0823114610c35578263715018a614610bda5782638da5cb5b14610bb25782639234dbc11461092e57826395d89b411461082c578263a9059cbb146107fc578263b576468e146105a8578263ba9a7a561461058c578263bf333f2c14610571578263d21220a71461052e578263dd62ed3e146104e5578263e39b0eb5146102a2578263e74b981b14610224578263f140a35a146101f7578263f2fde38b1461016a57505063fff6cae914610133575f80fd5b34610166575f3660031901126101665761014b61136d565b610153611484565b60015f8051602061177e83398151915255005b5f80fd5b3461016657602036600319011261016657610183611031565b9061018c611341565b6001600160a01b039182169283156101e1575050600554826bffffffffffffffffffffffff60a01b821617600555167f8be0079c531659141344cd1fd0a4f28419497f9722a3daafe3b4186f6b6457e05f80a3005b905f6024925191631e4fbdf760e01b8352820152fd5b903461016657806003193601126101665761021d602092610216611047565b903561112c565b9051908152f35b346101665760203660031901126101665761023d611031565b90610246611341565b6001600160a01b03918216928315610295575050816006549182167faaebcf1bfa00580e41d966056b48521fa9f202645c86d4ddf28113e617c1b1d35f80a36001600160a01b03191617600655005b5163d92e233d60e01b8152fd5b34610166576102b03661105d565b6102bd949293919461136d565b81156104d5576001600160a01b038181169384156104c7576102ff906002549761030f600754996102ff8b610304836001600160701b0398898094168d6110c1565b6110e8565b9c60701c16896110c1565b9789109081156104bd575b5080156104b5575b80156104ad575b61049f57331561048957335f525f602052885f20549085821061045e5750916103a86103fc9492868995335f525f602052038b5f205586600254036002555f8b518881525f8051602061175e83398151915260203392a36103a2600754610394838d16848316611106565b928088169160701c16611106565b906116f0565b6103d58883837f000000000000000000000000000000000000000000000000000000000000000016611425565b7f000000000000000000000000000000000000000000000000000000000000000016611425565b7fbc7d19d505c7ec4db83f3b51f19fb98c4c8a99922e7839d1ee608dfbee29501b85518061043e33948789846040919493926060820195825260208201520152565b0390a360015f8051602061177e8339815191525582519182526020820152f35b895163391434e360e21b81523391810191825260208201929092526040810186905281906060010390fd5b6024905f8a5191634b637e8f60e11b8352820152fd5b885163749383ad60e01b8152fd5b508615610329565b508715610322565b905087108a61031a565b875163d92e233d60e01b8152fd5b8551631f2a200560e01b81528390fd5b5034610166578060031936011261016657602090610501611031565b610509611047565b9060018060a01b038091165f5260018452825f2091165f528252805f20549051908152f35b5034610166575f36600319011261016657517f00000000000000000000000000000000000000000000000000000000000000006001600160a01b03168152602090f35b5034610166575f3660031901126101665760209051601e8152f35b5034610166575f36600319011261016657602090516103e88152f35b34610166576105b63661105d565b91949290936105c361136d565b811580156107f4575b6107e6576001600160a01b039283169283156107d75760075461064b886001600160701b0393610620873033847f00000000000000000000000000000000000000000000000000000000000000001661139c565b309033907f00000000000000000000000000000000000000000000000000000000000000001661139c565b60025491826107a357505061066861066388856110c1565b6115d0565b906103e8908183111561079357818101809111610780576002555f5f8051602061175e833981519152602061dead938484528382528984208181540190558951908152a36103e719810190811161076d57945b85108015610765575b61075757507f4a1a2a6176e9646d9e3157f7c2ab3c499f18337c0b0828cfb28e0a61de4a11f7846020966106fa8260025461111f565b600255845f525f8852855f20828154019055845f5f8051602061175e8339815191528a8951868152a361072b611484565b8551938452602084015260408301523391606090a360015f8051602061177e8339815191525551908152f35b8351633489be7560e21b8152fd5b5084156106c4565b601182634e487b7160e01b5f525260245ffd5b601184634e487b7160e01b5f525260245ffd5b8651633489be7560e21b81528490fd5b916102ff836107bc84956107c895166102ff858a6110c1565b9460701c16918a6110c1565b908180821091180218946106bb565b50835163d92e233d60e01b8152fd5b8351631f2a200560e01b8152fd5b5085156105cc565b503461016657806003193601126101665760209061082561081b611031565b602435903361127a565b5160018152f35b9034610166575f366003190112610166578051905f9280549060018260011c9160018416938415610924575b6020948585108114610911578488529081156108ef5750600114610896575b6108928686610888828b038361108b565b5191829182610fea565b0390f35b5f9081529295507f8a35acfbc15ff81a39ae7d344fd709f28e8600b4aa8c65c6b64bfe7fe36bd19b5b8284106108dc575050508261089294610888928201019486610877565b80548685018801529286019281016108bf565b60ff191687860152505050151560051b83010192506108888261089286610877565b602283634e487b7160e01b5f525260245ffd5b92607f1692610858565b3461016657608036600319011261016657604435916001600160a01b03808416833581860361016657606435838116938482036101665761096d61136d565b8215610ba2578415610b92577f00000000000000000000000000000000000000000000000000000000000000008181168514801580610b66575b610b56578015610b42576001600160701b03600754165b8115610b30576001600160701b0360075460701c16905b6001600160701b0380911615918215610b25575b5050610b1557601e8502858104601e03610b0257612710610a0c91049a8661112c565b986024358a108015610afa575b610aec5750887fd6d34547c69c5ee3d2667625c188acf1006abb93e0ee7cf03925c67cf776041394610ab89460209c94610a9394610a5a8a308d339061139c565b6006870480610ad7575b5015610ad257507f00000000000000000000000000000000000000000000000000000000000000005b16611425565b610a9b611484565b865193845260208401889052604084015233929081906060820190565b0390a460015f8051602061177e8339815191525551908152f35b610a8d565b610ae69084600654168d611425565b8f610a64565b88516342301c2360e01b8152fd5b508915610a19565b60118a634e487b7160e01b5f525260245ffd5b87516342301c2360e01b81528990fd5b161590508b806109e9565b6001600160701b0360075416906109d5565b6001600160701b0360075460701c166109be565b875163c1ab6dc160e01b81528990fd5b50827f0000000000000000000000000000000000000000000000000000000000000000168614156109a7565b855163d92e233d60e01b81528790fd5b8551631f2a200560e01b81528790fd5b5034610166575f3660031901126101665760055490516001600160a01b039091168152602090f35b34610166575f36600319011261016657610bf2611341565b600580546001600160a01b031981169091555f906001600160a01b03167f8be0079c531659141344cd1fd0a4f28419497f9722a3daafe3b4186f6b6457e08280a3005b5034610166576020366003190112610166576020906001600160a01b03610c5a611031565b165f525f8252805f20549051908152f35b5034610166575f3660031901126101665760065490516001600160a01b039091168152602090f35b5034610166575f366003190112610166576020905160128152f35b5034610166575f36600319011261016657602090516127108152f35b3461016657606036600319011261016657610ce3611031565b610ceb611047565b906044359260018060a01b038216805f526001602052855f20335f52602052855f2054915f198310610d26575b60208761082588888861127a565b858310610d8e578115610d78573315610d6257505f90815260016020908152868220338352815290869020918590039091558290610825610d18565b6024905f885191634a1406b160e11b8352820152fd5b6024905f88519163e602df0560e01b8352820152fd5b8651637dc7a0d960e11b8152339181019182526020820193909352604081018690528291506060010390fd5b5034610166575f366003190112610166576020906002549051908152f35b5034610166575f36600319011261016657517f00000000000000000000000000000000000000000000000000000000000000006001600160a01b03168152602090f35b9034610166578060031936011261016657610e34611031565b602435903315610ead576001600160a01b0316908115610e975760209350335f5260018452825f20825f52845280835f205582519081527f8c5be1e5ebec7d5bd14f71427d1e84f3dd0314c0f7b2291e5b200ac8c7c3b925843392a35160018152f35b8251634a1406b160e11b81525f81860152602490fd5b825163e602df0560e01b81525f81860152602490fd5b5034610166575f3660031901126101665760075490516001600160701b03808316825260709290921c9091166020820152604090f35b8234610166575f366003190112610166575f9260035460018160011c91600181168015610fe0575b6020948585108214610fcd5750838752908115610fad5750600114610f53575b5050506108888261089294038361108b565b60035f9081529295507fc2575a0e9e593c00f959f8c92f12db2869c3395a3b0502d05e2516446f71f85b5b828410610f9a5750505082610892946108889282010194610f41565b8054868501880152928601928101610f7e565b60ff1916868501525050151560051b830101925061088882610892610f41565b602290634e487b7160e01b5f525260245ffd5b92607f1692610f21565b602080825282518183018190529093925f5b82811061101d57505060409293505f838284010152601f8019910116010190565b818101860151848201604001528501610ffc565b600435906001600160a01b038216820361016657565b602435906001600160a01b038216820361016657565b6080906003190112610166576004359060243590604435906064356001600160a01b03811681036101665790565b90601f8019910116810190811067ffffffffffffffff8211176110ad57604052565b634e487b7160e01b5f52604160045260245ffd5b818102929181159184041417156110d457565b634e487b7160e01b5f52601160045260245ffd5b81156110f2570490565b634e487b7160e01b5f52601260045260245ffd5b6001600160701b0391821690821603919082116110d457565b919082018092116110d457565b908115611268576001600160a01b039081167f00000000000000000000000000000000000000000000000000000000000000008216811491821591908261123b575b5050611229578015611215576001600160701b03600754165b6001600160701b03908116911561120b578060075460701c165b1690801591828015611203575b6111f1576126f2808502948504036110d457836111ca916110c1565b916127108083029283041417156110d4576111ee926111e89161111f565b906110e8565b90565b6040516342301c2360e01b8152600490fd5b5080156111ae565b80600754166111a1565b6001600160701b0360075460701c16611187565b60405163c1ab6dc160e01b8152600490fd5b7f000000000000000000000000000000000000000000000000000000000000000016141590505f8061116e565b60405163098fb56160e01b8152600490fd5b916001600160a01b03808416928315611329571692831561131157825f525f60205260405f2054908282106112df5750815f8051602061175e83398151915292602092855f525f84520360405f2055845f5260405f20818154019055604051908152a3565b60405163391434e360e21b81526001600160a01b03919091166004820152602481019190915260448101829052606490fd5b60405163ec442f0560e01b81525f6004820152602490fd5b604051634b637e8f60e11b81525f6004820152602490fd5b6005546001600160a01b0316330361135557565b60405163118cdaa760e01b8152336004820152602490fd5b5f8051602061177e833981519152600281541461138a5760029055565b604051633ee5aeb560e01b8152600490fd5b6040516323b872dd60e01b5f9081526001600160a01b03938416600452938316602452604494909452909160209060648180855af160015f5114811615611406575b836040525f606052156113f057505050565b635274afe760e01b835216600482015260249150fd5b600181151661141c57813b15153d1516166113de565b833d5f823e3d90fd5b60405163a9059cbb60e01b5f9081526001600160a01b039384166004526024949094529260209060448180855af160015f511481161561146e575b83604052156113f057505050565b600181151661141c57813b15153d151616611460565b6040516370a0823160e01b8082523060048301526020916001600160a01b039083816024817f000000000000000000000000000000000000000000000000000000000000000086165afa9283156115945784915f9461159f575b5060246040518094819382523060048301527f0000000000000000000000000000000000000000000000000000000000000000165afa928315611594575f93611564575b50506001600160701b03808211801561155b575b6115495780611547931691166116f0565b565b604051631a93c68960e11b8152600490fd5b50808311611536565b9080929350813d831161158d575b61157c818361108b565b810103126101665751905f80611522565b503d611572565b6040513d5f823e3d90fd5b8281939295503d83116115c9575b6115b7818361108b565b8101031261016657839051925f6114de565b503d6115ad565b6001808211156116ec5761168d908083600160801b8110156116da575b80600160401b60049210156116cd575b6401000000008110156116c0575b620100008110156116b3575b6101008110156116a7575b601081101561169b575b1015611694575b600302811c61164281856110e8565b01811c61164f81856110e8565b01811c61165c81856110e8565b01811c61166981856110e8565b01811c61167681856110e8565b01811c61168381856110e8565b01901c80926110e8565b8111900390565b811b611633565b811c9160021b9161162c565b60081c91811b91611622565b60101c9160081b91611617565b60201c9160101b9161160b565b60401c9160201b916115fd565b50600160401b9050608084901c6115ed565b5090565b600780546001600160e01b0319166001600160701b03928316908117607085901b6dffffffffffffffffffffffffffff60701b1617909155604080519182529190921660208301527f1e5b7024be4ffa91f34bc8c0bffdd9fa124e3e1e9fac7010fa729ef6993aa75091a156feddf252ad1be2c89b69c2b068fc378daa952ba7f163c4a11628f55a4df523b3ef9b779b17422d0df92223018b32b4d1fa46e071723d6817e2486d003becc55f00a264697066735822122015b2abfd7a21f314012f08f5d4ee237534703c6ac91e791b8d675b3094ae978164736f6c63430008180033",
  "linkReferences": {},
  "deployedLinkReferences": {}
}