{
  "_format": "hh-sol-artifact-1",
  "contractName": "ProtocolItems",
  "sourceName": "contracts/tokens/ProtocolItems.sol",
  "abi": [
    {
      "inputs": [
        {
          "internalType": "string",
          "name": "baseUri",
          "type": "string"
        },
        {
          "internalType": "address",
          "name": "admin",
          "type": "address"
        }
      ],
      "stateMutability": "nonpayable",
      "type": "constructor"
    },
    {
      "inputs": [],
      "name": "AccessControlBadConfirmation",
      "type": "error"
    },
    {
      "inputs": [
        {
          "internalType": "address",
          "name": "account",
          "type": "address"
        },
        {
          "internalType": "bytes32",
          "name": "neededRole",
          "type": "bytes32"
        }
      ],
      "name": "AccessControlUnauthorizedAccount",
      "type": "error"
    },
    {
      "inputs": [
        {
          "internalType": "address",
          "name": "sender",
          "type": "address"
        },
        {
          "internalType": "uint256",
          "name": "balance",
          "type": "uint256"
        },
        {
          "internalType": "uint256",
          "name": "needed",
          "type": "uint256"
        },
        {
          "internalType": "uint256",
          "name": "tokenId",
          "type": "uint256"
        }
      ],
      "name": "ERC1155InsufficientBalance",
      "type": "error"
    },
    {
      "inputs": [
        {
          "internalType": "address",
          "name": "approver",
          "type": "address"
        }
      ],
      "name": "ERC1155InvalidApprover",
      "type": "error"
    },
    {
      "inputs": [
        {
          "internalType": "uint256",
          "name": "idsLength",
          "type": "uint256"
        },
        {
          "internalType": "uint256",
          "name": "valuesLength",
          "type": "uint256"
        }
      ],
      "name": "ERC1155InvalidArrayLength",
      "type": "error"
    },
    {
      "inputs": [
        {
          "internalType": "address",
          "name": "operator",
          "type": "address"
        }
      ],
      "name": "ERC1155InvalidOperator",
      "type": "error"
    },
    {
      "inputs": [
        {
          "internalType": "address",
          "name": "receiver",
          "type": "address"
        }
      ],
      "name": "ERC1155InvalidReceiver",
      "type": "error"
    },
    {
      "inputs": [
        {
          "internalType": "address",
          "name": "sender",
          "type": "address"
        }
      ],
      "name": "ERC1155InvalidSender",
      "type": "error"
    },
    {
      "inputs": [
        {
          "internalType": "address",
          "name": "operator",
          "type": "address"
        },
        {
          "internalType": "address",
          "name": "owner",
          "type": "address"
        }
      ],
      "name": "ERC1155MissingApprovalForAll",
      "type": "error"
    },
    {
      "inputs": [],
      "name": "EnforcedPause",
      "type": "error"
    },
    {
      "inputs": [],
      "name": "ExpectedPause",
      "type": "error"
    },
    {
      "anonymous": false,
      "inputs": [
        {
          "indexed": true,
          "internalType": "address",
          "name": "account",
          "type": "address"
        },
        {
          "indexed": true,
          "internalType": "address",
          "name": "operator",
          "type": "address"
        },
        {
          "indexed": false,
          "internalType": "bool",
          "name": "approved",
          "type": "bool"
        }
      ],
      "name": "ApprovalForAll",
      "type": "event"
    },
    {
      "anonymous": false,
      "inputs": [
        {
          "indexed": false,
          "internalType": "address",
          "name": "account",
          "type": "address"
        }
      ],
      "name": "Paused",
      "type": "event"
    },
    {
      "anonymous": false,
      "inputs": [
        {
          "indexed": true,
          "internalType": "bytes32",
          "name": "role",
          "type": "bytes32"
        },
        {
          "indexed": true,
          "internalType": "bytes32",
          "name": "previousAdminRole",
          "type": "bytes32"
        },
        {
          "indexed": true,
          "internalType": "bytes32",
          "name": "newAdminRole",
          "type": "bytes32"
        }
      ],
      "name": "RoleAdminChanged",
      "type": "event"
    },
    {
      "anonymous": false,
      "inputs": [
        {
          "indexed": true,
          "internalType": "bytes32",
          "name": "role",
          "type": "bytes32"
        },
        {
          "indexed": true,
          "internalType": "address",
          "name": "account",
          "type": "address"
        },
        {
          "indexed": true,
          "internalType": "address",
          "name": "sender",
          "type": "address"
        }
      ],
      "name": "RoleGranted",
      "type": "event"
    },
    {
      "anonymous": false,
      "inputs": [
        {
          "indexed": true,
          "internalType": "bytes32",
          "name": "role",
          "type": "bytes32"
        },
        {
          "indexed": true,
          "internalType": "address",
          "name": "account",
          "type": "address"
        },
        {
          "indexed": true,
          "internalType": "address",
          "name": "sender",
          "type": "address"
        }
      ],
      "name": "RoleRevoked",
      "type": "event"
    },
    {
      "anonymous": false,
      "inputs": [
        {
          "indexed": true,
          "internalType": "address",
          "name": "operator",
          "type": "address"
        },
        {
          "indexed": true,
          "internalType": "address",
          "name": "from",
          "type": "address"
        },
        {
          "indexed": true,
          "internalType": "address",
          "name": "to",
          "type": "address"
        },
        {
          "indexed": false,
          "internalType": "uint256[]",
          "name": "ids",
          "type": "uint256[]"
        },
        {
          "indexed": false,
          "internalType": "uint256[]",
          "name": "values",
          "type": "uint256[]"
        }
      ],
      "name": "TransferBatch",
      "type": "event"
    },
    {
      "anonymous": false,
      "inputs": [
        {
          "indexed": true,
          "internalType": "address",
          "name": "operator",
          "type": "address"
        },
        {
          "indexed": true,
          "internalType": "address",
          "name": "from",
          "type": "address"
        },
        {
          "indexed": true,
          "internalType": "address",
          "name": "to",
          "type": "address"
        },
        {
          "indexed": false,
          "internalType": "uint256",
          "name": "id",
          "type": "uint256"
        },
        {
          "indexed": false,
          "internalType": "uint256",
          "name": "value",
          "type": "uint256"
        }
      ],
      "name": "TransferSingle",
      "type": "event"
    },
    {
      "anonymous": false,
      "inputs": [
        {
          "indexed": false,
          "internalType": "string",
          "name": "value",
          "type": "string"
        },
        {
          "indexed": true,
          "internalType": "uint256",
          "name": "id",
          "type": "uint256"
        }
      ],
      "name": "URI",
      "type": "event"
    },
    {
      "anonymous": false,
      "inputs": [
        {
          "indexed": false,
          "internalType": "address",
          "name": "account",
          "type": "address"
        }
      ],
      "name": "Unpaused",
      "type": "event"
    },
    {
      "inputs": [],
      "name": "DEFAULT_ADMIN_ROLE",
      "outputs": [
        {
          "internalType": "bytes32",
          "name": "",
          "type": "bytes32"
        }
      ],
      "stateMutability": "view",
      "type": "function"
    },
    {
      "inputs": [],
      "name": "MINTER_ROLE",
      "outputs": [
        {
          "internalType": "bytes32",
          "name": "",
          "type": "bytes32"
        }
      ],
      "stateMutability": "view",
      "type": "function"
    },
    {
      "inputs": [],
      "name": "PAUSER_ROLE",
      "outputs": [
        {
          "internalType": "bytes32",
          "name": "",
          "type": "bytes32"
        }
      ],
      "stateMutability": "view",
      "type": "function"
    },
    {
      "inputs": [],
      "name": "URI_SETTER_ROLE",
      "outputs": [
        {
          "internalType": "bytes32",
          "name": "",
          "type": "bytes32"
        }
      ],
      "stateMutability": "view",
      "type": "function"
    },
    {
      "inputs": [
        {
          "internalType": "address",
          "name": "account",
          "type": "address"
        },
        {
          "internalType": "uint256",
          "name": "id",
          "type": "uint256"
        }
      ],
      "name": "balanceOf",
      "outputs": [
        {
          "internalType": "uint256",
          "name": "",
          "type": "uint256"
        }
      ],
      "stateMutability": "view",
      "type": "function"
    },
    {
      "inputs": [
        {
          "internalType": "address[]",
          "name": "accounts",
          "type": "address[]"
        },
        {
          "internalType": "uint256[]",
          "name": "ids",
          "type": "uint256[]"
        }
      ],
      "name": "balanceOfBatch",
      "outputs": [
        {
          "internalType": "uint256[]",
          "name": "",
          "type": "uint256[]"
        }
      ],
      "stateMutability": "view",
      "type": "function"
    },
    {
      "inputs": [
        {
          "internalType": "uint256",
          "name": "id",
          "type": "uint256"
        }
      ],
      "name": "exists",
      "outputs": [
        {
          "internalType": "bool",
          "name": "",
          "type": "bool"
        }
      ],
      "stateMutability": "view",
      "type": "function"
    },
    {
      "inputs": [
        {
          "internalType": "bytes32",
          "name": "role",
          "type": "bytes32"
        }
      ],
      "name": "getRoleAdmin",
      "outputs": [
        {
          "internalType": "bytes32",
          "name": "",
          "type": "bytes32"
        }
      ],
      "stateMutability": "view",
      "type": "function"
    },
    {
      "inputs": [
        {
          "internalType": "bytes32",
          "name": "role",
          "type": "bytes32"
        },
        {
          "internalType": "address",
          "name": "account",
          "type": "address"
        }
      ],
      "name": "grantRole",
      "outputs": [],
      "stateMutability": "nonpayable",
      "type": "function"
    },
    {
      "inputs": [
        {
          "internalType": "bytes32",
          "name": "role",
          "type": "bytes32"
        },
        {
          "internalType": "address",
          "name": "account",
          "type": "address"
        }
      ],
      "name": "hasRole",
      "outputs": [
        {
          "internalType": "bool",
          "name": "",
          "type": "bool"
        }
      ],
      "stateMutability": "view",
      "type": "function"
    },
    {
      "inputs": [
        {
          "internalType": "address",
          "name": "account",
          "type": "address"
        },
        {
          "internalType": "address",
          "name": "operator",
          "type": "address"
        }
      ],
      "name": "isApprovedForAll",
      "outputs": [
        {
          "internalType": "bool",
          "name": "",
          "type": "bool"
        }
      ],
      "stateMutability": "view",
      "type": "function"
    },
    {
      "inputs": [
        {
          "internalType": "address",
          "name": "to",
          "type": "address"
        },
        {
          "internalType": "uint256",
          "name": "id",
          "type": "uint256"
        },
        {
          "internalType": "uint256",
          "name": "amount",
          "type": "uint256"
        },
        {
          "internalType": "bytes",
          "name": "data",
          "type": "bytes"
        }
      ],
      "name": "mint",
      "outputs": [],
      "stateMutability": "nonpayable",
      "type": "function"
    },
    {
      "inputs": [
        {
          "internalType": "address",
          "name": "to",
          "type": "address"
        },
        {
          "internalType": "uint256[]",
          "name": "ids",
          "type": "uint256[]"
        },
        {
          "internalType": "uint256[]",
          "name": "amounts",
          "type": "uint256[]"
        },
        {
          "internalType": "bytes",
          "name": "data",
          "type": "bytes"
        }
      ],
      "name": "mintBatch",
      "outputs": [],
      "stateMutability": "nonpayable",
      "type": "function"
    },
    {
      "inputs": [],
      "name": "pause",
      "outputs": [],
      "stateMutability": "nonpayable",
      "type": "function"
    },
    {
      "inputs": [],
      "name": "paused",
      "outputs": [
        {
          "internalType": "bool",
          "name": "",
          "type": "bool"
        }
      ],
      "stateMutability": "view",
      "type": "function"
    },
    {
      "inputs": [
        {
          "internalType": "bytes32",
          "name": "role",
          "type": "bytes32"
        },
        {
          "internalType": "address",
          "name": "callerConfirmation",
          "type": "address"
        }
      ],
      "name": "renounceRole",
      "outputs": [],
      "stateMutability": "nonpayable",
      "type": "function"
    },
    {
      "inputs": [
        {
          "internalType": "bytes32",
          "name": "role",
          "type": "bytes32"
        },
        {
          "internalType": "address",
          "name": "account",
          "type": "address"
        }
      ],
      "name": "revokeRole",
      "outputs": [],
      "stateMutability": "nonpayable",
      "type": "function"
    },
    {
      "inputs": [
        {
          "internalType": "address",
          "name": "from",
          "type": "address"
        },
        {
          "internalType": "address",
          "name": "to",
          "type": "address"
        },
        {
          "internalType": "uint256[]",
          "name": "ids",
          "type": "uint256[]"
        },
        {
          "internalType": "uint256[]",
          "name": "values",
          "type": "uint256[]"
        },
        {
          "internalType": "bytes",
          "name": "data",
          "type": "bytes"
        }
      ],
      "name": "safeBatchTransferFrom",
      "outputs": [],
      "stateMutability": "nonpayable",
      "type": "function"
    },
    {
      "inputs": [
        {
          "internalType": "address",
          "name": "from",
          "type": "address"
        },
        {
          "internalType": "address",
          "name": "to",
          "type": "address"
        },
        {
          "internalType": "uint256",
          "name": "id",
          "type": "uint256"
        },
        {
          "internalType": "uint256",
          "name": "value",
          "type": "uint256"
        },
        {
          "internalType": "bytes",
          "name": "data",
          "type": "bytes"
        }
      ],
      "name": "safeTransferFrom",
      "outputs": [],
      "stateMutability": "nonpayable",
      "type": "function"
    },
    {
      "inputs": [
        {
          "internalType": "address",
          "name": "operator",
          "type": "address"
        },
        {
          "internalType": "bool",
          "name": "approved",
          "type": "bool"
        }
      ],
      "name": "setApprovalForAll",
      "outputs": [],
      "stateMutability": "nonpayable",
      "type": "function"
    },
    {
      "inputs": [
        {
          "internalType": "string",
          "name": "newUri",
          "type": "string"
        }
      ],
      "name": "setURI",
      "outputs": [],
      "stateMutability": "nonpayable",
      "type": "function"
    },
    {
      "inputs": [
        {
          "internalType": "bytes4",
          "name": "interfaceId",
          "type": "bytes4"
        }
      ],
      "name": "supportsInterface",
      "outputs": [
        {
          "internalType": "bool",
          "name": "",
          "type": "bool"
        }
      ],
      "stateMutability": "view",
      "type": "function"
    },
    {
      "inputs": [],
      "name": "totalSupply",
      "outputs": [
        {
          "internalType": "uint256",
          "name": "",
          "type": "uint256"
        }
      ],
      "stateMutability": "view",
      "type": "function"
    },
    {
      "inputs": [
        {
          "internalType": "uint256",
          "name": "id",
          "type": "uint256"
        }
      ],
      "name": "totalSupply",
      "outputs": [
        {
          "internalType": "uint256",
          "name": "",
          "type": "uint256"
        }
      ],
      "stateMutability": "view",
      "type": "function"
    },
    {
      "inputs": [],
      "name": "unpause",
      "outputs": [],
      "stateMutability": "nonpayable",
      "type": "function"
    },
    {
      "inputs": [
        {
          "internalType": "uint256",
          "name": "",
          "type": "uint256"
        }
      ],
      "name": "uri",
      "outputs": [
        {
          "internalType": "string",
          "name": "",
          "type": "string"
        }
      ],
      "stateMutability": "view",
      "type": "function"
    }
  ],
  "bytecode": "0x608060405234620002405762002042803803806200001d8162000259565b928339810190604081830312620002405780516001600160401b0392908381116200024057820190601f9080828401121562000240578251938585116200022c57602094601f1994620000768583018716880162000259565b938285528783830101116200024057908692915f5b828110620002445750505f9084018301520151936001600160a01b0385168503620002405781519586116200022c57600254936001948581811c9116801562000221575b838210146200020d57848111620001c4575b50819387116001146200015b57505093809281926200013e965f946200014f575b50501b915f199060031b1c1916176002555b6200011f816200027f565b506200012b81620002ef565b50620001378162000390565b506200042b565b50604051611b3b9081620004c78239f35b015192505f8062000102565b8693919296169560025f52825f20925f905b888210620001ac575050836200013e971062000193575b505050811b0160025562000114565b01515f1960f88460031b161c191690555f808062000184565b8087859682949686015181550195019301906200016d565b60025f52825f2085808a0160051c820192858b1062000203575b0160051c019086905b828110620001f7575050620000e1565b5f8155018690620001e7565b92508192620001de565b634e487b7160e01b5f52602260045260245ffd5b90607f1690620000cf565b634e487b7160e01b5f52604160045260245ffd5b5f80fd5b8181018501518682018601528894016200008b565b6040519190601f01601f191682016001600160401b038111838210176200022c57604052565b6001600160a01b03165f8181525f8051602062002022833981519152602052604090205460ff16620002ea575f8181525f805160206200202283398151915260205260408120805460ff191660011790553391905f80516020620020028339815191528180a4600190565b505f90565b6001600160a01b03165f8181527f15a28d26fa1bf736cf7edc9922607171ccb09c3c73b808e7772a3013e068a52260205260409020547f9f2df0fed2c77648de5860a4cc508cd0818c85b8b8a1ab4ceeef8d981c8956a6919060ff166200038a57815f52600560205260405f20815f5260205260405f20600160ff1982541617905533915f80516020620020028339815191525f80a4600190565b50505f90565b6001600160a01b03165f8181527fad9066c724a2e0c9d8722441991b9c03b5207b8dc80b95a4e4813e80d670486360205260409020547f7804d923f43a17d325d77e781528e0793b2edd9890ab45fc64efd7b4b427744c919060ff166200038a57815f52600560205260405f20815f5260205260405f20600160ff1982541617905533915f80516020620020028339815191525f80a4600190565b6001600160a01b03165f8181527f99f2891db7a8db76249871a02b43b68c0bb8f22ef8a3bc1034ae9375ef6b7c3c60205260409020547f65d7a28e3265b37a6474929f336521b332c1681b933f6cb9f3376673440d862a919060ff166200038a57815f52600560205260405f20815f5260205260405f20600160ff1982541617905533915f80516020620020028339815191525f80a460019056fe60806040526004361015610011575f80fd5b5f3560e01c8062fdd58e146101b357806301ffc9a7146101ae57806302fe5305146101a95780630e89341c146101a457806318160ddd1461019f5780631f7fdffa1461019a578063248a9ca3146101955780632eb2c2d6146101905780632f2ff15d1461018b57806336568abe146101865780633f4ba83a146101815780634e1273f41461017c5780634f558e79146101775780635c975abb14610172578063731133e91461016d5780637f345710146101685780638456cb591461016357806391d148541461015e578063a217fddf14610159578063a22cb46514610154578063bd85b0391461014f578063d53913931461014a578063d547741f14610145578063e63ab1e914610140578063e985e9c51461013b5763f242432a14610136575f80fd5b610ebf565b610e6f565b610e35565b610df8565b610dbe565b610d94565b610cb7565b610c9d565b610c4f565b610bf6565b610bbc565b610ac5565b610aa3565b610a77565b6109bc565b61090f565b6108c8565b61088b565b6107c1565b610794565b610672565b6105c2565b6104eb565b61036b565b610256565b6101fc565b600435906001600160a01b03821682036101ce57565b5f80fd5b602435906001600160a01b03821682036101ce57565b35906001600160a01b03821682036101ce57565b346101ce5760403660031901126101ce57602061023b61021a6101b8565b6024355f525f835260405f209060018060a01b03165f5260205260405f2090565b54604051908152f35b6001600160e01b03198116036101ce57565b346101ce5760203660031901126101ce57602060043561027581610244565b63ffffffff60e01b16637965db0b60e01b811490811561029b575b506040519015158152f35b636cdb3d1360e11b8114915081156102cd575b81156102bc575b505f610290565b6301ffc9a760e01b1490505f6102b5565b6303a24d0760e21b811491506102ae565b634e487b7160e01b5f52604160045260245ffd5b90601f8019910116810190811067ffffffffffffffff82111761031457604052565b6102de565b67ffffffffffffffff811161031457601f01601f191660200190565b92919261034182610319565b9161034f60405193846102f2565b8294818452818301116101ce578281602093845f960137010152565b346101ce576020806003193601126101ce5767ffffffffffffffff6004358181116101ce57366023820112156101ce576103af903690602481600401359101610335565b916103b8611079565b8251918211610314576103d5826103d0600254610f5c565b6111c2565b602090601f831160011461041557508190610405935f9261040a575b50508160011b915f199060031b1c19161790565b600255005b015190505f806103f1565b90601f1983169361044760025f527f405787fa12a823e0f2b7631cc41b3ba8828b3321ca811111fa75cd3aa3bb5ace90565b925f905b8682106104815750508360019510610469575b505050811b01600255005b01515f1960f88460031b161c191690555f808061045e565b8060018596829496860151815501950193019061044b565b91908251928382525f5b8481106104c3575050825f602080949584010152601f8019910116010190565b6020818301810151848301820152016104a3565b9060206104e8928181520190610499565b90565b346101ce576020806003193601126101ce576040515f9160025461050e81610f5c565b808452906001908181169081156105a25750600114610548575b61054484610538818803826102f2565b604051918291826104d7565b0390f35b60025f9081529294507f405787fa12a823e0f2b7631cc41b3ba8828b3321ca811111fa75cd3aa3bb5ace5b82841061058f5750505081610544936105389282010193610528565b8054858501870152928501928101610573565b60ff1916858501525050151560051b820101915061053881610544610528565b346101ce575f3660031901126101ce576020600454604051908152f35b67ffffffffffffffff81116103145760051b60200190565b9080601f830112156101ce576020908235610611816105df565b9361061f60405195866102f2565b81855260208086019260051b8201019283116101ce57602001905b828210610648575050505090565b8135815290830190830161063a565b9080601f830112156101ce578160206104e893359101610335565b346101ce5760803660031901126101ce5761068b6101b8565b67ffffffffffffffff906024358281116101ce576106ad9036906004016105f7565b916044358181116101ce576106c69036906004016105f7565b906064359081116101ce576106df903690600401610657565b906106e861114b565b6001600160a01b0383161561077c576106ff6114cf565b61070a818585611854565b5f91825b855184101561075a576107526001918560051b906107406020808489010151938b0101515f52600360205260405f2090565b61074b83825461180e565b905561180e565b93019261070e565b91858561077461076f61077a9660045461180e565b600455565b336117a2565b005b604051632bfa23e760e11b81525f6004820152602490fd5b346101ce5760203660031901126101ce576004355f5260056020526020600160405f200154604051908152f35b346101ce5760a03660031901126101ce576107da6101b8565b6107e26101d2565b67ffffffffffffffff6044358181116101ce576108039036906004016105f7565b6064358281116101ce5761081b9036906004016105f7565b916084359081116101ce57610834903690600401610657565b9261083f853361122f565b6001600160a01b038181161561077c578516156108745761077a946108626114cf565b61086e84848484611968565b336117d7565b604051626a0d4560e21b81525f6004820152602490fd5b346101ce5760403660031901126101ce5761077a6004356108aa6101d2565b90805f5260056020526108c3600160405f2001546111a2565b61129d565b346101ce5760403660031901126101ce576108e16101d2565b336001600160a01b038216036108fd5761077a9060043561132d565b60405163334bd91960e11b8152600490fd5b346101ce575f3660031901126101ce576109276110f4565b60065460ff8116156109665760ff19166006557f5db9ee0a495bf2e6ff9c91a7834c1ba4fdd244a5e8aa4e537bd38aeae4b073aa6020604051338152a1005b604051638dfc202b60e01b8152600490fd5b9081518082526020808093019301915f5b828110610997575050505090565b835185529381019392810192600101610989565b9060206104e8928181520190610978565b346101ce5760403660031901126101ce5760043567ffffffffffffffff8082116101ce57366023830112156101ce5781600401356109f9816105df565b92610a0760405194856102f2565b8184526020916024602086019160051b830101913683116101ce57602401905b828210610a6057856024358681116101ce5761054491610a4e610a549236906004016105f7565b90610fbc565b604051918291826109ab565b838091610a6c846101e8565b815201910190610a27565b346101ce5760203660031901126101ce576004355f526003602052602060405f20541515604051908152f35b346101ce575f3660031901126101ce57602060ff600654166040519015158152f35b346101ce5760803660031901126101ce57610ade6101b8565b60643567ffffffffffffffff81116101ce57610afe903690600401610657565b90610b0761114b565b6001600160a01b0381161561077c57610b446044356024359160405192600184526020840152604083019160018352606084015260808301604052565b610b4f9391936114cf565b610b5a818585611854565b5f91825b8551841015610b9857610b906001918560051b906107406020808489010151938b0101515f52600360205260405f2090565b930192610b5e565b61077a9260208088610bb061076f8a9660045461180e565b01519101519133611594565b346101ce575f3660031901126101ce5760206040517f7804d923f43a17d325d77e781528e0793b2edd9890ab45fc64efd7b4b427744c8152f35b346101ce575f3660031901126101ce57610c0e6110f4565b610c166114cf565b600160ff1960065416176006557f62e78cea01bee320cd4e420270b5ea74000d11b0c9f74754ebdbfc544b05a2586020604051338152a1005b346101ce5760403660031901126101ce57602060ff610c91610c6f6101d2565b6004355f526005845260405f209060018060a01b03165f5260205260405f2090565b54166040519015158152f35b346101ce575f3660031901126101ce5760206040515f8152f35b346101ce5760403660031901126101ce57610cd06101b8565b60243580151581036101ce573315610d7c576001600160a01b038216918215610d6557335f908152600160205260409020610d33918391610d2291905b9060018060a01b03165f5260205260405f2090565b9060ff801983541691151516179055565b604051901515815233907f17307eab39ab6107e8899845ad3d59bd9653f200f220920489ca2b5937696c3190602090a3005b60405162ced3e160e81b81525f6004820152602490fd5b604051631f18c42760e11b81525f6004820152602490fd5b346101ce5760203660031901126101ce576004355f526003602052602060405f2054604051908152f35b346101ce575f3660031901126101ce5760206040517f9f2df0fed2c77648de5860a4cc508cd0818c85b8b8a1ab4ceeef8d981c8956a68152f35b346101ce5760403660031901126101ce5761077a600435610e176101d2565b90805f526005602052610e30600160405f2001546111a2565b61132d565b346101ce575f3660031901126101ce5760206040517f65d7a28e3265b37a6474929f336521b332c1681b933f6cb9f3376673440d862a8152f35b346101ce5760403660031901126101ce57602060ff610c91610e8f6101b8565b610e976101d2565b6001600160a01b039182165f9081526001865260408082209290931681526020919091522090565b346101ce5760a03660031901126101ce57610ed86101b8565b610ee06101d2565b60843567ffffffffffffffff81116101ce57610f00903690600401610657565b90610f0b833361122f565b6001600160a01b038181161561077c578316156108745761077a92610f546064356044359160405192600184526020840152604083019160018352606084015260808301604052565b9290916113b5565b90600182811c92168015610f8a575b6020831014610f7657565b634e487b7160e01b5f52602260045260245ffd5b91607f1691610f6b565b8051821015610fa85760209160051b010190565b634e487b7160e01b5f52603260045260245ffd5b91909180518351808203611057575050805190610ff1610fdb836105df565b92610fe960405194856102f2565b8084526105df565b60209190601f190136848401375f5b815181101561104f57600581901b8281018401519087018401515f908152602081815260408083206001600160a01b0390941683529290522054600191906110488287610f94565b5201611000565b509193505050565b604051635b05999160e01b815260048101919091526024810191909152604490fd5b335f9081527fad9066c724a2e0c9d8722441991b9c03b5207b8dc80b95a4e4813e80d6704863602052604090207f7804d923f43a17d325d77e781528e0793b2edd9890ab45fc64efd7b4b427744c9060ff905b5416156110d65750565b6044906040519063e2517d3f60e01b82523360048301526024820152fd5b335f9081527f99f2891db7a8db76249871a02b43b68c0bb8f22ef8a3bc1034ae9375ef6b7c3c602052604090207f65d7a28e3265b37a6474929f336521b332c1681b933f6cb9f3376673440d862a9060ff906110cc565b335f9081527f15a28d26fa1bf736cf7edc9922607171ccb09c3c73b808e7772a3013e068a522602052604090207f9f2df0fed2c77648de5860a4cc508cd0818c85b8b8a1ab4ceeef8d981c8956a69060ff906110cc565b5f818152600560209081526040808320338452909152902060ff906110cc565b601f81116111ce575050565b60025f527f405787fa12a823e0f2b7631cc41b3ba8828b3321ca811111fa75cd3aa3bb5ace906020601f840160051c83019310611225575b601f0160051c01905b81811061121a575050565b5f815560010161120f565b9091508190611206565b6001600160a01b0381811692169081831415908161126f575b50611251575050565b604492506040519163711bec9160e11b835260048301526024820152fd5b5f8381526001602090815260408083206001600160a01b0390941683529290522060ff91505416155f611248565b5f8181526005602090815260408083206001600160a01b038616845290915290205460ff16611327575f8181526005602090815260408083206001600160a01b03861684529091529020805460ff1916600117905533916001600160a01b0316907f2f8788117e7eff1d82e926ec794901d17c78024a50270940304540a733656f0d5f80a4600190565b50505f90565b5f8181526005602090815260408083206001600160a01b038616845290915290205460ff1615611327575f8181526005602090815260408083206001600160a01b03861684529091529020805460ff1916905533916001600160a01b0316907ff6391f5c32d9c69d2a47ea670b442974b53935d1edc7fd64eb21e047a839171b5f80a4600190565b919392906113c16114cf565b6113cd82868386611968565b6001600160a01b038381161561146f575b81161580611411575b156113f4575b5050505050565b602080611407960151920151923361168d565b5f808080806113ed565b94935f939091845b8651861015611457576001908660051b90611448602080848a010151938b0101515f52600360205260405f2090565b82815403905501950194611419565b61146a9193969792955060045403600455565b6113e7565b9591925f94915f955b87518710156114b2576114aa6001918860051b90610740602080848c010151938d0101515f52600360205260405f2090565b960195611478565b6114ca9193965061076f90989295949860045461180e565b6113de565b60ff600654166114db57565b60405163d93c066560e01b8152600490fd5b908160209103126101ce57516104e881610244565b909260a0926104e89594600180861b031683525f6020840152604083015260608201528160808201520190610499565b91926104e895949160a094600180871b038092168552166020840152604083015260608201528160808201520190610499565b3d1561158f573d9061157682610319565b9161158460405193846102f2565b82523d5f602084013e565b606090565b9293919093843b6115a6575050505050565b6020916115c9604051948593849363f23a6e6160e01b9889865260048601611502565b03815f6001600160a01b0388165af15f918161165c575b5061161f57826115ee611565565b805191908261161857604051632bfa23e760e11b81526001600160a01b0383166004820152602490fd5b6020915001fd5b6001600160e01b0319160361163957505f808080806113ed565b604051632bfa23e760e11b81526001600160a01b03919091166004820152602490fd5b61167f91925060203d602011611686575b61167781836102f2565b8101906114ed565b905f6115e0565b503d61166d565b939290949194853b6116a2575b505050505050565b6116c5602093604051958694859463f23a6e6160e01b998a875260048701611532565b03815f6001600160a01b0388165af15f9181611705575b506116ea57826115ee611565565b6001600160e01b0319160361163957505f808080808061169a565b61171f91925060203d6020116116865761167781836102f2565b905f6116dc565b926117546104e895936117629360018060a01b031686525f602087015260a0604087015260a0860190610978565b908482036060860152610978565b916080818403910152610499565b93906104e89593611754916117629460018060a01b03809216885216602087015260a0604087015260a0860190610978565b9293919093843b6117b4575050505050565b6020916115c9604051948593849363bc197c8160e01b9889865260048601611726565b939290949194853b6117eb57505050505050565b6116c5602093604051958694859463bc197c8160e01b998a875260048701611770565b9190820180921161181b57565b634e487b7160e01b5f52601160045260245ffd5b90916118466104e893604084526040840190610978565b916020818403910152610978565b91909182518251908181036110575750505f5b83518110156118cb57600581901b84810160209081015191850101516001929184906001600160a01b0382166118a1575b50505001611867565b6118c191610d0d6118b9925f525f60205260405f2090565b91825461180e565b90555f8381611898565b509160018151145f1461192a576020908101519181015160408051938452918301526001600160a01b03909216915f9133917fc3d58168c5ae7397731d063d5bbf3d657854427343f4c083240f7aacaa2d0f629190819081015b0390a4565b7f4a39dc06d4c0dbc64b70af90fd698a233a518aa5d07e595d983b8c0526c8f7fb6119255f939460405191829160018060a01b03169633958361182f565b93929180518351908181036110575750505f5b8151811015611a6057600581901b82810160209081015191860101516001600160a01b03929185908985166119e0575b60019482166119be575b5050500161197b565b6119d691610d0d6118b9925f525f60205260405f2090565b90555f84816119b5565b91929390506119fa89610d0d845f525f60205260405f2090565b54838110611a295791869184600196959403611a218c610d0d855f525f60205260405f2090565b5594506119ab565b6040516303dee4c560e01b81526001600160a01b038b16600482015260248101919091526044810184905260648101839052608490fd5b508051939493919291600103611ac2576020908101519181015160408051938452918301526001600160a01b03928316939092169133917fc3d58168c5ae7397731d063d5bbf3d657854427343f4c083240f7aacaa2d0f629181908101611925565b6040516001600160a01b03938416949093169233927f4a39dc06d4c0dbc64b70af90fd698a233a518aa5d07e595d983b8c0526c8f7fb928291611925918361182f56fea2646970667358221220b8c62851683d79526c38cd77255568442c98ee588d28738e34101a129317cfba64736f6c634300081800332f8788117e7eff1d82e926ec794901d17c78024a50270940304540a733656f0d05b8ccbb9d4d8fb16ea74ce3c29a41f1b461fbdaff4714a0d9a8eb05499746bc",
  "linkReferences": {},
  "deployedLinkReferences": {}
}