{
  "_format": "hh-sol-artifact-1",
  "contractName": "YieldVault",
  "sourceName": "contracts/vault/YieldVault.sol",
  "abi": [
    {
      "inputs": [
        {
          "internalType": "contract IERC20",
          "name": "asset_",
          "type": "address"
        },
        {
          "internalType": "address",
          "name": "initialOwner",
          "type": "address"
        }
      ],
      "stateMutability": "nonpayable",
      "type": "constructor"
    },
    {
      "inputs": [
        {
          "internalType": "address",
          "name": "spender",
          "type": "address"
        },
        {
          "internalType": "uint256",
          "name": "allowance",
          "type": "uint256"
        },
        {
          "internalType": "uint256",
          "name": "needed",
          "type": "uint256"
        }
      ],
      "name": "ERC20InsufficientAllowance",
      "type": "error"
    },
    {
      "inputs": [
        {
          "internalType": "address",
          "name": "sender",
          "type": "address"
        },
        {
          "internalType": "uint256",
          "name": "balance",
          "type": "uint256"
        },
        {
          "internalType": "uint256",
          "name": "needed",
          "type": "uint256"
        }
      ],
      "name": "ERC20InsufficientBalance",
      "type": "error"
    },
    {
      "inputs": [
        {
          "internalType": "address",
          "name": "approver",
          "type": "address"
        }
      ],
      "name": "ERC20InvalidApprover",
      "type": "error"
    },
    {
      "inputs": [
        {
          "internalType": "address",
          "name": "receiver",
          "type": "address"
        }
      ],
      "name": "ERC20InvalidReceiver",
      "type": "error"
    },
    {
      "inputs": [
        {
          "internalType": "address",
          "name": "sender",
          "type": "address"
        }
      ],
      "name": "ERC20InvalidSender",
      "type": "error"
    },
    {
      "inputs": [
        {
          "internalType": "address",
          "name": "spender",
          "type": "address"
        }
      ],
      "name": "ERC20InvalidSpender",
      "type": "error"
    },
    {
      "inputs": [
        {
          "internalType": "address",
          "name": "receiver",
          "type": "address"
        },
        {
          "internalType": "uint256",
          "name": "assets",
          "type": "uint256"
        },
        {
          "internalType": "uint256",
          "name": "max",
          "type": "uint256"
        }
      ],
      "name": "ERC4626ExceededMaxDeposit",
      "type": "error"
    },
    {
      "inputs": [
        {
          "internalType": "address",
          "name": "receiver",
          "type": "address"
        },
        {
          "internalType": "uint256",
          "name": "shares",
          "type": "uint256"
        },
        {
          "internalType": "uint256",
          "name": "max",
          "type": "uint256"
        }
      ],
      "name": "ERC4626ExceededMaxMint",
      "type": "error"
    },
    {
      "inputs": [
        {
          "internalType": "address",
          "name": "owner",
          "type": "address"
        },
        {
          "internalType": "uint256",
          "name": "shares",
          "type": "uint256"
        },
        {
          "internalType": "uint256",
          "name": "max",
          "type": "uint256"
        }
      ],
      "name": "ERC4626ExceededMaxRedeem",
      "type": "error"
    },
    {
      "inputs": [
        {
          "internalType": "address",
          "name": "owner",
          "type": "address"
        },
        {
          "internalType": "uint256",
          "name": "assets",
          "type": "uint256"
        },
        {
          "internalType": "uint256",
          "name": "max",
          "type": "uint256"
        }
      ],
      "name": "ERC4626ExceededMaxWithdraw",
      "type": "error"
    },
    {
      "inputs": [],
      "name": "EnforcedPause",
      "type": "error"
    },
    {
      "inputs": [],
      "name": "ExpectedPause",
      "type": "error"
    },
    {
      "inputs": [
        {
          "internalType": "address",
          "name": "owner",
          "type": "address"
        }
      ],
      "name": "OwnableInvalidOwner",
      "type": "error"
    },
    {
      "inputs": [
        {
          "internalType": "address",
          "name": "account",
          "type": "address"
        }
      ],
      "name": "OwnableUnauthorizedAccount",
      "type": "error"
    },
    {
      "inputs": [],
      "name": "ReentrancyGuardReentrantCall",
      "type": "error"
    },
    {
      "inputs": [
        {
          "internalType": "address",
          "name": "token",
          "type": "address"
        }
      ],
      "name": "SafeERC20FailedOperation",
      "type": "error"
    },
    {
      "anonymous": false,
      "inputs": [
        {
          "indexed": true,
          "internalType": "address",
          "name": "owner",
          "type": "address"
        },
        {
          "indexed": true,
          "internalType": "address",
          "name": "spender",
          "type": "address"
        },
        {
          "indexed": false,
          "internalType": "uint256",
          "name": "value",
          "type": "uint256"
        }
      ],
      "name": "Approval",
      "type": "event"
    },
    {
      "anonymous": false,
      "inputs": [
        {
          "indexed": true,
          "internalType": "address",
          "name": "sender",
          "type": "address"
        },
        {
          "indexed": true,
          "internalType": "address",
          "name": "owner",
          "type": "address"
        },
        {
          "indexed": false,
          "internalType": "uint256",
          "name": "assets",
          "type": "uint256"
        },
        {
          "indexed": false,
          "internalType": "uint256",
          "name": "shares",
          "type": "uint256"
        }
      ],
      "name": "Deposit",
      "type": "event"
    },
    {
      "anonymous": false,
      "inputs": [
        {
          "indexed": true,
          "internalType": "address",
          "name": "previousOwner",
          "type": "address"
        },
        {
          "indexed": true,
          "internalType": "address",
          "name": "newOwner",
          "type": "address"
        }
      ],
      "name": "OwnershipTransferred",
      "type": "event"
    },
    {
      "anonymous": false,
      "inputs": [
        {
          "indexed": false,
          "internalType": "address",
          "name": "account",
          "type": "address"
        }
      ],
      "name": "Paused",
      "type": "event"
    },
    {
      "anonymous": false,
      "inputs": [
        {
          "indexed": true,
          "internalType": "address",
          "name": "from",
          "type": "address"
        },
        {
          "indexed": true,
          "internalType": "address",
          "name": "to",
          "type": "address"
        },
        {
          "indexed": false,
          "internalType": "uint256",
          "name": "value",
          "type": "uint256"
        }
      ],
      "name": "Transfer",
      "type": "event"
    },
    {
      "anonymous": false,
      "inputs": [
        {
          "indexed": false,
          "internalType": "address",
          "name": "account",
          "type": "address"
        }
      ],
      "name": "Unpaused",
      "type": "event"
    },
    {
      "anonymous": false,
      "inputs": [
        {
          "indexed": true,
          "internalType": "address",
          "name": "sender",
          "type": "address"
        },
        {
          "indexed": true,
          "internalType": "address",
          "name": "receiver",
          "type": "address"
        },
        {
          "indexed": true,
          "internalType": "address",
          "name": "owner",
          "type": "address"
        },
        {
          "indexed": false,
          "internalType": "uint256",
          "name": "assets",
          "type": "uint256"
        },
        {
          "indexed": false,
          "internalType": "uint256",
          "name": "shares",
          "type": "uint256"
        }
      ],
      "name": "Withdraw",
      "type": "event"
    },
    {
      "anonymous": false,
      "inputs": [
        {
          "indexed": true,
          "internalType": "address",
          "name": "caller",
          "type": "address"
        },
        {
          "indexed": false,
          "internalType": "uint256",
          "name": "assets",
          "type": "uint256"
        },
        {
          "indexed": false,
          "internalType": "uint256",
          "name": "totalAssetsAfter",
          "type": "uint256"
        }
      ],
      "name": "YieldReported",
      "type": "event"
    },
    {
      "inputs": [
        {
          "internalType": "address",
          "name": "owner",
          "type": "address"
        },
        {
          "internalType": "address",
          "name": "spender",
          "type": "address"
        }
      ],
      "name": "allowance",
      "outputs": [
        {
          "internalType": "uint256",
          "name": "",
          "type": "uint256"
        }
      ],
      "stateMutability": "view",
      "type": "function"
    },
    {
      "inputs": [
        {
          "internalType": "address",
          "name": "spender",
          "type": "address"
        },
        {
          "internalType": "uint256",
          "name": "value",
          "type": "uint256"
        }
      ],
      "name": "approve",
      "outputs": [
        {
          "internalType": "bool",
          "name": "",
          "type": "bool"
        }
      ],
      "stateMutability": "nonpayable",
      "type": "function"
    },
    {
      "inputs": [],
      "name": "asset",
      "outputs": [
        {
          "internalType": "address",
          "name": "",
          "type": "address"
        }
      ],
      "stateMutability": "view",
      "type": "function"
    },
    {
      "inputs": [
        {
          "internalType": "address",
          "name": "account",
          "type": "address"
        }
      ],
      "name": "balanceOf",
      "outputs": [
        {
          "internalType": "uint256",
          "name": "",
          "type": "uint256"
        }
      ],
      "stateMutability": "view",
      "type": "function"
    },
    {
      "inputs": [
        {
          "internalType": "uint256",
          "name": "shares",
          "type": "uint256"
        }
      ],
      "name": "convertToAssets",
      "outputs": [
        {
          "internalType": "uint256",
          "name": "",
          "type": "uint256"
        }
      ],
      "stateMutability": "view",
      "type": "function"
    },
    {
      "inputs": [
        {
          "internalType": "uint256",
          "name": "assets",
          "type": "uint256"
        }
      ],
      "name": "convertToShares",
      "outputs": [
        {
          "internalType": "uint256",
          "name": "",
          "type": "uint256"
        }
      ],
      "stateMutability": "view",
      "type": "function"
    },
    {
      "inputs": [],
      "name": "decimals",
      "outputs": [
        {
          "internalType": "uint8",
          "name": "",
          "type": "uint8"
        }
      ],
      "stateMutability": "view",
      "type": "function"
    },
    {
      "inputs": [
        {
          "internalType": "uint256",
          "name": "assets",
          "type": "uint256"
        },
        {
          "internalType": "address",
          "name": "receiver",
          "type": "address"
        }
      ],
      "name": "deposit",
      "outputs": [
        {
          "internalType": "uint256",
          "name": "",
          "type": "uint256"
        }
      ],
      "stateMutability": "nonpayable",
      "type": "function"
    },
    {
      "inputs": [
        {
          "internalType": "address",
          "name": "",
          "type": "address"
        }
      ],
      "name": "maxDeposit",
      "outputs": [
        {
          "internalType": "uint256",
          "name": "",
          "type": "uint256"
        }
      ],
      "stateMutability": "view",
      "type": "function"
    },
    {
      "inputs": [
        {
          "internalType": "address",
          "name": "",
          "type": "address"
        }
      ],
      "name": "maxMint",
      "outputs": [
        {
          "internalType": "uint256",
          "name": "",
          "type": "uint256"
        }
      ],
      "stateMutability": "view",
      "type": "function"
    },
    {
      "inputs": [
        {
          "internalType": "address",
          "name": "owner",
          "type": "address"
        }
      ],
      "name": "maxRedeem",
      "outputs": [
        {
          "internalType": "uint256",
          "name": "",
          "type": "uint256"
        }
      ],
      "stateMutability": "view",
      "type": "function"
    },
    {
      "inputs": [
        {
          "internalType": "address",
          "name": "owner",
          "type": "address"
        }
      ],
      "name": "maxWithdraw",
      "outputs": [
        {
          "internalType": "uint256",
          "name": "",
          "type": "uint256"
        }
      ],
      "stateMutability": "view",
      "type": "function"
    },
    {
      "inputs": [
        {
          "internalType": "uint256",
          "name": "shares",
          "type": "uint256"
        },
        {
          "internalType": "address",
          "name": "receiver",
          "type": "address"
        }
      ],
      "name": "mint",
      "outputs": [
        {
          "internalType": "uint256",
          "name": "",
          "type": "uint256"
        }
      ],
      "stateMutability": "nonpayable",
      "type": "function"
    },
    {
      "inputs": [],
      "name": "name",
      "outputs": [
        {
          "internalType": "string",
          "name": "",
          "type": "string"
        }
      ],
      "stateMutability": "view",
      "type": "function"
    },
    {
      "inputs": [],
      "name": "owner",
      "outputs": [
        {
          "internalType": "address",
          "name": "",
          "type": "address"
        }
      ],
      "stateMutability": "view",
      "type": "function"
    },
    {
      "inputs": [],
      "name": "pause",
      "outputs": [],
      "stateMutability": "nonpayable",
      "type": "function"
    },
    {
      "inputs": [],
      "name": "paused",
      "outputs": [
        {
          "internalType": "bool",
          "name": "",
          "type": "bool"
        }
      ],
      "stateMutability": "view",
      "type": "function"
    },
    {
      "inputs": [
        {
          "internalType": "uint256",
          "name": "assets",
          "type": "uint256"
        }
      ],
      "name": "previewDeposit",
      "outputs": [
        {
          "internalType": "uint256",
          "name": "",
          "type": "uint256"
        }
      ],
      "stateMutability": "view",
      "type": "function"
    },
    {
      "inputs": [
        {
          "internalType": "uint256",
          "name": "shares",
          "type": "uint256"
        }
      ],
      "name": "previewMint",
      "outputs": [
        {
          "internalType": "uint256",
          "name": "",
          "type": "uint256"
        }
      ],
      "stateMutability": "view",
      "type": "function"
    },
    {
      "inputs": [
        {
          "internalType": "uint256",
          "name": "shares",
          "type": "uint256"
        }
      ],
      "name": "previewRedeem",
      "outputs": [
        {
          "internalType": "uint256",
          "name": "",
          "type": "uint256"
        }
      ],
      "stateMutability": "view",
      "type": "function"
    },
    {
      "inputs": [
        {
          "internalType": "uint256",
          "name": "assets",
          "type": "uint256"
        }
      ],
      "name": "previewWithdraw",
      "outputs": [
        {
          "internalType": "uint256",
          "name": "",
          "type": "uint256"
        }
      ],
      "stateMutability": "view",
      "type": "function"
    },
    {
      "inputs": [
        {
          "internalType": "uint256",
          "name": "shares",
          "type": "uint256"
        },
        {
          "internalType": "address",
          "name": "receiver",
          "type": "address"
        },
        {
          "internalType": "address",
          "name": "owner",
          "type": "address"
        }
      ],
      "name": "redeem",
      "outputs": [
        {
          "internalType": "uint256",
          "name": "",
          "type": "uint256"
        }
      ],
      "stateMutability": "nonpayable",
      "type": "function"
    },
    {
      "inputs": [],
      "name": "renounceOwnership",
      "outputs": [],
      "stateMutability": "nonpayable",
      "type": "function"
    },
    {
      "inputs": [
        {
          "internalType": "uint256",
          "name": "assets",
          "type": "uint256"
        }
      ],
      "name": "reportYield",
      "outputs": [],
      "stateMutability": "nonpayable",
      "type": "function"
    },
    {
      "inputs": [],
      "name": "symbol",
      "outputs": [
        {
          "internalType": "string",
          "name": "",
          "type": "string"
        }
      ],
      "stateMutability": "view",
      "type": "function"
    },
    {
      "inputs": [],
      "name": "totalAssets",
      "outputs": [
        {
          "internalType": "uint256",
          "name": "",
          "type": "uint256"
        }
      ],
      "stateMutability": "view",
      "type": "function"
    },
    {
      "inputs": [],
      "name": "totalSupply",
      "outputs": [
        {
          "internalType": "uint256",
          "name": "",
          "type": "uint256"
        }
      ],
      "stateMutability": "view",
      "type": "function"
    },
    {
      "inputs": [
        {
          "internalType": "address",
          "name": "to",
          "type": "address"
        },
        {
          "internalType": "uint256",
          "name": "value",
          "type": "uint256"
        }
      ],
      "name": "transfer",
      "outputs": [
        {
          "internalType": "bool",
          "name": "",
          "type": "bool"
        }
      ],
      "stateMutability": "nonpayable",
      "type": "function"
    },
    {
      "inputs": [
        {
          "internalType": "address",
          "name": "from",
          "type": "address"
        },
        {
          "internalType": "address",
          "name": "to",
          "type": "address"
        },
        {
          "internalType": "uint256",
          "name": "value",
          "type": "uint256"
        }
      ],
      "name": "transferFrom",
      "outputs": [
        {
          "internalType": "bool",
          "name": "",
          "type": "bool"
        }
      ],
      "stateMutability": "nonpayable",
      "type": "function"
    },
    {
      "inputs": [
        {
          "internalType": "address",
          "name": "newOwner",
          "type": "address"
        }
      ],
      "name": "transferOwnership",
      "outputs": [],
      "stateMutability": "nonpayable",
      "type": "function"
    },
    {
      "inputs": [],
      "name": "unpause",
      "outputs": [],
      "stateMutability": "nonpayable",
      "type": "function"
    },
    {
      "inputs": [
        {
          "internalType": "uint256",
          "name": "assets",
          "type": "uint256"
        },
        {
          "internalType": "address",
          "name": "receiver",
          "type": "address"
        },
        {
          "internalType": "address",
          "name": "owner",
          "type": "address"
        }
      ],
      "name": "withdraw",
      "outputs": [
        {
          "internalType": "uint256",
          "name": "",
          "type": "uint256"
        }
      ],
      "stateMutability": "nonpayable",
      "type": "function"
    }
  ],
  "bytecode": "0x60c0346200050f57620018d8601f38829003908101601f19168301906001600160401b03821184831017620003d457808491604094859485528339810103126200050f578151916001600160a01b03831683036200050f5760200151916001600160a01b03831683036200050f5781516200007a8162000513565b601881527f446546692053747564656e74205661756c7420536861726500000000000000006020820152825190620000b28262000513565b6008825267647376534841524560c01b60208301528051906001600160401b038211620003d45760035490600182811c9216801562000504575b6020831014620004f05781601f8493116200047d575b50602090601f8311600114620003f4575f92620003e8575b50508160011b915f199060031b1c1916176003555b80516001600160401b038111620003d4576004918254600181811c91168015620003c9575b6020821014620003b6579081601f84931162000361575b50602090601f8311600114620002f8575f92620002ec575b50508160011b915f199060031b1c19161781555b825191835f6020850163313ce56760e01b8152848652620001b88662000513565b8551906001600160a01b0385165afa5f519084865280620002e0575b80620002d4575b15620002cb5760ff1660015b15620002c2575b60a0526080526001600160a01b03841615620002ae575050600580546001600160a01b039384166001600160a01b0319821681179092559151929091167f8be0079c531659141344cd1fd0a4f28419497f9722a3daafe3b4186f6b6457e05f80a360017f9b779b17422d0df92223018b32b4d1fa46e071723d6817e2486d003becc55f00556113a8908162000530823960805181818161025f0152818161083f01528181610c5f015281816110ac01526111d9015260a051816108840152f35b631e4fbdf760e01b82525f90820152602490fd5b506012620001ee565b505f80620001e7565b5060ff811115620001db565b5060203d1015620001d4565b015190505f8062000183565b5f858152602081209350601f198516905b8181106200034857509084600195949392106200032f575b505050811b01815562000197565b01515f1960f88460031b161c191690555f808062000321565b9293602060018192878601518155019501930162000309565b909150835f5260205f20601f840160051c81019160208510620003ab575b90601f859493920160051c01905b8181106200039c57506200016b565b5f81558493506001016200038d565b90915081906200037f565b602284634e487b7160e01b5f525260245ffd5b90607f169062000154565b634e487b7160e01b5f52604160045260245ffd5b015190505f806200011a565b60035f9081527fc2575a0e9e593c00f959f8c92f12db2869c3395a3b0502d05e2516446f71f85b9350601f198516905b8181106200046457509084600195949392106200044b575b505050811b016003556200012f565b01515f1960f88460031b161c191690555f80806200043c565b9293602060018192878601518155019501930162000424565b60035f529091507fc2575a0e9e593c00f959f8c92f12db2869c3395a3b0502d05e2516446f71f85b601f840160051c81019160208510620004e5575b90601f859493920160051c01905b818110620004d6575062000102565b5f8155849350600101620004c7565b9091508190620004b9565b634e487b7160e01b5f52602260045260245ffd5b91607f1691620000ec565b5f80fd5b604081019081106001600160401b03821117620003d45760405256fe604060808152600480361015610013575f80fd5b5f3560e01c806301e1d11414610ae157806306fdde03146109ec57806307a2d13a146107b6578063095ea7b3146109435780630a28a4771461092457806318160ddd1461090657806323b872dd146108ca578063313ce5671461086e57806338d52e0f1461082b5780633f4ba83a146107bb578063402d267d146103795780634cdad506146107b65780635c975abb146107905780636e553f651461074c57806370a0823114610310578063715018a6146106f15780638456cb59146106925780638da5cb5b1461066a57806394bf804d1461062657806395d89b4114610523578063a9059cbb146104f3578063b3d7f6b9146104d4578063b460af9414610439578063ba0876521461037e578063c63d75b614610379578063c6e6f5921461020c578063ce96cb7714610351578063d905777e14610310578063dd62ed3e146102c7578063e203ad0614610211578063ef8b30f71461020c5763f2fde38b1461017b575f80fd5b3461020857602036600319011261020857610194610b6a565b9061019d610f4b565b6001600160a01b039182169283156101f2575050600554826bffffffffffffffffffffffff60a01b821617600555167f8be0079c531659141344cd1fd0a4f28419497f9722a3daafe3b4186f6b6457e05f80a3005b905f6024925191631e4fbdf760e01b8352820152fd5b5f80fd5b610bf0565b5034610208576020366003190112610208577f79537db7972733b8a98f8e12a29404e30464485dceea1f08f9c77f99e4bf6a3990359161024f610f4b565b610257610f98565b61028c8330337f00000000000000000000000000000000000000000000000000000000000000006001600160a01b0316610fda565b610294610c44565b815193845260208401523392a260017f9b779b17422d0df92223018b32b4d1fa46e071723d6817e2486d003becc55f0055005b82346102085780600319360112610208576020906102e3610b6a565b6102eb610b80565b9060018060a01b038091165f5260018452825f2091165f528252805f20549051908152f35b82346102085760203660031901126102085760209061034a610330610b6a565b6001600160a01b03165f9081526020819052604090205490565b9051908152f35b82346102085760203660031901126102085760209061034a610374610330610b6a565b610d23565b610b96565b5090346102085761038e36610bbb565b929193610399610f77565b6103a1610f98565b6001600160a01b0384165f908152602081905283902054808611610404575050836103da916103d1602096610d23565b94859133611158565b60017f9b779b17422d0df92223018b32b4d1fa46e071723d6817e2486d003becc55f005551908152f35b9251632e52afbb60e21b81526001600160a01b0390941690840190815260208101949094525060408301529081906060010390fd5b5090346102085761044936610bbb565b929193610454610f77565b61045c610f98565b6001600160a01b0384165f9081526020819052604090205461047d90610d23565b80861161049f5750506103da9084610496602096610d4e565b94859233611158565b9251633fa733bb60e21b81526001600160a01b0390941690840190815260208101949094525060408301529081906060010390fd5b5090346102085760203660031901126102085761034a60209235610cf5565b823461020857806003193601126102085760209061051c610512610b6a565b6024359033610e71565b5160018152f35b509034610208575f366003190112610208578051905f9280549060018260011c916001841693841561061c575b6020948585108114610609578488529081156105e7575060011461058e575b61058a8686610580828b0383610c0e565b5191829182610afd565b0390f35b5f9081529295507f8a35acfbc15ff81a39ae7d344fd709f28e8600b4aa8c65c6b64bfe7fe36bd19b5b8284106105d4575050508261058a9461058092820101945f61056f565b80548685018801529286019281016105b7565b60ff191687860152505050151560051b83010192506105808261058a5f61056f565b602283634e487b7160e01b5f525260245ffd5b92607f1692610550565b50903461020857806003193601126102085760209135906103da610648610b80565b92610651610f77565b610659610f98565b61066281610cf5565b809433611097565b8234610208575f3660031901126102085760055490516001600160a01b039091168152602090f35b8234610208575f3660031901126102085760207f62e78cea01bee320cd4e420270b5ea74000d11b0c9f74754ebdbfc544b05a258916106cf610f4b565b6106d7610f77565b6005805460ff60a01b1916600160a01b17905551338152a1005b34610208575f36600319011261020857610709610f4b565b600580546001600160a01b031981169091555f906001600160a01b03167f8be0079c531659141344cd1fd0a4f28419497f9722a3daafe3b4186f6b6457e08280a3005b50903461020857806003193601126102085760209135906103da61076e610b80565b610776610f77565b61077e610f98565b61078784610d79565b93849133611097565b8234610208575f3660031901126102085760209060ff60055460a01c1690519015158152f35b610b44565b509034610208575f366003190112610208576107d5610f4b565b6005549160ff8360a01c161561081d5760ff60a01b19831660055581513381527f5db9ee0a495bf2e6ff9c91a7834c1ba4fdd244a5e8aa4e537bd38aeae4b073aa90602090a1005b9051638dfc202b60e01b8152fd5b8234610208575f36600319011261020857517f00000000000000000000000000000000000000000000000000000000000000006001600160a01b03168152602090f35b509034610208575f3660031901126102085760ff7f0000000000000000000000000000000000000000000000000000000000000000169060ff82116108b7576020925051908152f35b601183634e487b7160e01b5f525260245ffd5b82346102085760603660031901126102085760209061051c6108ea610b6a565b6108f2610b80565b60443591610901833383610da4565b610e71565b8234610208575f366003190112610208576020906002549051908152f35b5090346102085760203660031901126102085761034a60209235610d4e565b50903461020857806003193601126102085761095d610b6a565b6024359033156109d6576001600160a01b03169081156109c05760209350335f5260018452825f20825f52845280835f205582519081527f8c5be1e5ebec7d5bd14f71427d1e84f3dd0314c0f7b2291e5b200ac8c7c3b925843392a35160018152f35b8251634a1406b160e11b81525f81860152602490fd5b825163e602df0560e01b81525f81860152602490fd5b509034610208575f366003190112610208578051905f9260035460018160011c91600181168015610ad7575b6020948585108214610ac45750838752908115610aa45750600114610a4a575b5050506105808261058a940383610c0e565b60035f9081529295507fc2575a0e9e593c00f959f8c92f12db2869c3395a3b0502d05e2516446f71f85b5b828410610a91575050508261058a946105809282010194610a38565b8054868501880152928601928101610a75565b60ff1916868501525050151560051b83010192506105808261058a610a38565b602290634e487b7160e01b5f525260245ffd5b92607f1692610a18565b8234610208575f3660031901126102085760209061034a610c44565b602080825282518183018190529093925f5b828110610b3057505060409293505f838284010152601f8019910116010190565b818101860151848201604001528501610b0f565b34610208576020366003190112610208576020610b62600435610d23565b604051908152f35b600435906001600160a01b038216820361020857565b602435906001600160a01b038216820361020857565b3461020857602036600319011261020857610baf610b6a565b5060206040515f198152f35b606090600319011261020857600435906001600160a01b03906024358281168103610208579160443590811681036102085790565b34610208576020366003190112610208576020610b62600435610d79565b90601f8019910116810190811067ffffffffffffffff821117610c3057604052565b634e487b7160e01b5f52604160045260245ffd5b6040516370a0823160e01b81523060048201526020816024817f00000000000000000000000000000000000000000000000000000000000000006001600160a01b03165afa908115610cc9575f91610c9a575090565b90506020813d602011610cc1575b81610cb560209383610c0e565b81010312610208575190565b3d9150610ca8565b6040513d5f823e3d90fd5b91908201809211610ce157565b634e487b7160e01b5f52601160045260245ffd5b610cfd610c44565b60018101809111610ce1576002549060018201809211610ce157610d2092611063565b90565b610d2b610c44565b60018101809111610ce1576002549060018201809211610ce157610d20926112d8565b60025460018101809111610ce157610d64610c44565b9060018201809211610ce157610d2092611063565b60025460018101809111610ce157610d8f610c44565b9060018201809211610ce157610d20926112d8565b919060018060a01b0380931692835f526001602052604093845f2091831691825f52602052845f2054925f198410610ddf575b505050505050565b848410610e4157508015610e2a578115610e13575f526001602052835f20905f5260205203905f20555f8080808080610dd7565b8451634a1406b160e11b81525f6004820152602490fd5b845163e602df0560e01b81525f6004820152602490fd5b8551637dc7a0d960e11b81526001600160a01b039190911660048201526024810184905260448101859052606490fd5b916001600160a01b03808416928315610f335716928315610f1b57825f525f60205260405f205490828210610ee95750817fddf252ad1be2c89b69c2b068fc378daa952ba7f163c4a11628f55a4df523b3ef92602092855f525f84520360405f2055845f5260405f20818154019055604051908152a3565b60405163391434e360e21b81526001600160a01b03919091166004820152602481019190915260448101829052606490fd5b60405163ec442f0560e01b81525f6004820152602490fd5b604051634b637e8f60e11b81525f6004820152602490fd5b6005546001600160a01b03163303610f5f57565b60405163118cdaa760e01b8152336004820152602490fd5b60ff60055460a01c16610f8657565b60405163d93c066560e01b8152600490fd5b7f9b779b17422d0df92223018b32b4d1fa46e071723d6817e2486d003becc55f006002815414610fc85760029055565b604051633ee5aeb560e01b8152600490fd5b6040516323b872dd60e01b5f9081526001600160a01b03938416600452938316602452604494909452909160209060648180855af160015f5114811615611044575b836040525f6060521561102e57505050565b635274afe760e01b835216600482015260249150fd5b600181151661105a57813b15153d15161661101c565b833d5f823e3d90fd5b9161106f8183856112d8565b91811561108357610d209309151590610cd4565b634e487b7160e01b5f52601260045260245ffd5b6001600160a01b0393909184906110d28530867f00000000000000000000000000000000000000000000000000000000000000008616610fda565b16938415610f1b577fdcbc1c05240f31ff3ad067ef1ee35ce4997762752e3a095284754544f4c709d7928261110b604094600254610cd4565b600255865f525f602052835f20818154019055865f7fddf252ad1be2c89b69c2b068fc378daa952ba7f163c4a11628f55a4df523b3ef60208751858152a3835195865260208601521692a3565b6001600160a01b0380841695909485831694939092828887036112c7575b50508615610f3357865f525f602052604093845f20549083821061129657508290885f525f60205203845f205581600254036002555f877fddf252ad1be2c89b69c2b068fc378daa952ba7f163c4a11628f55a4df523b3ef60208751868152a3857f0000000000000000000000000000000000000000000000000000000000000000169584519163a9059cbb60e01b5f521695866004528360245260205f60448180855af160015f5114811615611277575b82865215611262575050825191825260208201527ffbde797d201c681b91056529119e0b02407c7bb96a4a2c75c01fc9667232c8db9190a4565b635274afe760e01b8252600482015260249150fd5b600181151661128d57813b15153d151616611228565b823d5f823e3d90fd5b855163391434e360e21b81526001600160a01b03919091166004820152602481019190915260448101839052606490fd5b6112d19186610da4565b5f82611176565b90915f198383099280830292838086109503948086039514611364578483111561134c5790829109815f038216809204600280826003021880830282030280830282030280830282030280830282030280830282030280920290030293600183805f03040190848311900302920304170290565b82634e487b715f52156003026011186020526024601cfd5b50508092501561108357049056fea264697066735822122045dfd3b1ccf63d86b30385d342ab829afb56a75b85404d2ebd637adb7235d49064736f6c63430008180033",
  "linkReferences": {},
  "deployedLinkReferences": {}
}